{
  "_format": "hh-sol-artifact-1",
  "contractName": "Pool",
  "sourceName": "contracts/Pool.sol",
  "abi": [
    {
      "inputs": [
        {
          "internalType": "address",
          "name": "token1_",
          "type": "address"
        },
        {
          "internalType": "address",
          "name": "token2_",
          "type": "address"
        },
        {
          "internalType": "uint256",
          "name": "fees_",
          "type": "uint256"
        }
      ],
      "stateMutability": "nonpayable",
      "type": "constructor"
    },
    {
      "anonymous": false,
      "inputs": [
        {
          "indexed": true,
          "internalType": "address",
          "name": "owner",
          "type": "address"
        },
        {
          "indexed": true,
          "internalType": "address",
          "name": "spender",
          "type": "address"
        },
        {
          "indexed": false,
          "internalType": "uint256",
          "name": "value",
          "type": "uint256"
        }
      ],
      "name": "Approval",
      "type": "event"
    },
    {
      "anonymous": false,
      "inputs": [
        {
          "indexed": true,
          "internalType": "address",
          "name": "sender",
          "type": "address"
        },
        {
          "indexed": false,
          "internalType": "enum Pool.Token",
          "name": "token",
          "type": "uint8"
        },
        {
          "indexed": false,
          "internalType": "uint256",
          "name": "amount",
          "type": "uint256"
        }
      ],
      "name": "Deposited",
      "type": "event"
    },
    {
      "anonymous": false,
      "inputs": [
        {
          "indexed": true,
          "internalType": "address",
          "name": "sender",
          "type": "address"
        },
        {
          "indexed": false,
          "internalType": "enum Pool.Token",
          "name": "token",
          "type": "uint8"
        },
        {
          "indexed": false,
          "internalType": "uint256",
          "name": "amountLP",
          "type": "uint256"
        }
      ],
      "name": "Removed",
      "type": "event"
    },
    {
      "anonymous": false,
      "inputs": [
        {
          "indexed": true,
          "internalType": "address",
          "name": "sender",
          "type": "address"
        },
        {
          "indexed": false,
          "internalType": "enum Pool.Token",
          "name": "token",
          "type": "uint8"
        },
        {
          "indexed": false,
          "internalType": "uint256",
          "name": "amount1",
          "type": "uint256"
        },
        {
          "indexed": false,
          "internalType": "uint256",
          "name": "amount2",
          "type": "uint256"
        }
      ],
      "name": "Swapped",
      "type": "event"
    },
    {
      "anonymous": false,
      "inputs": [
        {
          "indexed": true,
          "internalType": "address",
          "name": "from",
          "type": "address"
        },
        {
          "indexed": true,
          "internalType": "address",
          "name": "to",
          "type": "address"
        },
        {
          "indexed": false,
          "internalType": "uint256",
          "name": "value",
          "type": "uint256"
        }
      ],
      "name": "Transfer",
      "type": "event"
    },
    {
      "inputs": [
        {
          "internalType": "address",
          "name": "owner",
          "type": "address"
        },
        {
          "internalType": "address",
          "name": "spender",
          "type": "address"
        }
      ],
      "name": "allowance",
      "outputs": [
        {
          "internalType": "uint256",
          "name": "",
          "type": "uint256"
        }
      ],
      "stateMutability": "view",
      "type": "function"
    },
    {
      "inputs": [
        {
          "internalType": "address",
          "name": "spender",
          "type": "address"
        },
        {
          "internalType": "uint256",
          "name": "amount",
          "type": "uint256"
        }
      ],
      "name": "approve",
      "outputs": [
        {
          "internalType": "bool",
          "name": "",
          "type": "bool"
        }
      ],
      "stateMutability": "nonpayable",
      "type": "function"
    },
    {
      "inputs": [
        {
          "internalType": "address",
          "name": "account",
          "type": "address"
        }
      ],
      "name": "balanceOf",
      "outputs": [
        {
          "internalType": "uint256",
          "name": "",
          "type": "uint256"
        }
      ],
      "stateMutability": "view",
      "type": "function"
    },
    {
      "inputs": [],
      "name": "cfmm",
      "outputs": [
        {
          "internalType": "uint256",
          "name": "",
          "type": "uint256"
        }
      ],
      "stateMutability": "view",
      "type": "function"
    },
    {
      "inputs": [],
      "name": "decimals",
      "outputs": [
        {
          "internalType": "uint8",
          "name": "",
          "type": "uint8"
        }
      ],
      "stateMutability": "view",
      "type": "function"
    },
    {
      "inputs": [
        {
          "internalType": "address",
          "name": "spender",
          "type": "address"
        },
        {
          "internalType": "uint256",
          "name": "subtractedValue",
          "type": "uint256"
        }
      ],
      "name": "decreaseAllowance",
      "outputs": [
        {
          "internalType": "bool",
          "name": "",
          "type": "bool"
        }
      ],
      "stateMutability": "nonpayable",
      "type": "function"
    },
    {
      "inputs": [
        {
          "internalType": "enum Pool.Token",
          "name": "token",
          "type": "uint8"
        },
        {
          "internalType": "uint256",
          "name": "amount",
          "type": "uint256"
        }
      ],
      "name": "depositLiquidity",
      "outputs": [],
      "stateMutability": "nonpayable",
      "type": "function"
    },
    {
      "inputs": [],
      "name": "fees",
      "outputs": [
        {
          "internalType": "uint256",
          "name": "",
          "type": "uint256"
        }
      ],
      "stateMutability": "view",
      "type": "function"
    },
    {
      "inputs": [
        {
          "internalType": "enum Pool.Token",
          "name": "token",
          "type": "uint8"
        },
        {
          "internalType": "uint256",
          "name": "amountIn",
          "type": "uint256"
        }
      ],
      "name": "getAmountOut",
      "outputs": [
        {
          "internalType": "uint256",
          "name": "amountOut",
          "type": "uint256"
        }
      ],
      "stateMutability": "view",
      "type": "function"
    },
    {
      "inputs": [
        {
          "internalType": "address",
          "name": "spender",
          "type": "address"
        },
        {
          "internalType": "uint256",
          "name": "addedValue",
          "type": "uint256"
        }
      ],
      "name": "increaseAllowance",
      "outputs": [
        {
          "internalType": "bool",
          "name": "",
          "type": "bool"
        }
      ],
      "stateMutability": "nonpayable",
      "type": "function"
    },
    {
      "inputs": [],
      "name": "name",
      "outputs": [
        {
          "internalType": "string",
          "name": "",
          "type": "string"
        }
      ],
      "stateMutability": "view",
      "type": "function"
    },
    {
      "inputs": [
        {
          "internalType": "enum Pool.Token",
          "name": "token",
          "type": "uint8"
        },
        {
          "internalType": "uint256",
          "name": "amountLP",
          "type": "uint256"
        }
      ],
      "name": "removeLiquidity",
      "outputs": [],
      "stateMutability": "nonpayable",
      "type": "function"
    },
    {
      "inputs": [
        {
          "internalType": "enum Pool.Token",
          "name": "token",
          "type": "uint8"
        },
        {
          "internalType": "uint256",
          "name": "amountIn",
          "type": "uint256"
        }
      ],
      "name": "swap",
      "outputs": [],
      "stateMutability": "nonpayable",
      "type": "function"
    },
    {
      "inputs": [],
      "name": "symbol",
      "outputs": [
        {
          "internalType": "string",
          "name": "",
          "type": "string"
        }
      ],
      "stateMutability": "view",
      "type": "function"
    },
    {
      "inputs": [],
      "name": "token1",
      "outputs": [
        {
          "internalType": "contract IERC20",
          "name": "",
          "type": "address"
        }
      ],
      "stateMutability": "view",
      "type": "function"
    },
    {
      "inputs": [],
      "name": "token2",
      "outputs": [
        {
          "internalType": "contract IERC20",
          "name": "",
          "type": "address"
        }
      ],
      "stateMutability": "view",
      "type": "function"
    },
    {
      "inputs": [],
      "name": "totalSupply",
      "outputs": [
        {
          "internalType": "uint256",
          "name": "",
          "type": "uint256"
        }
      ],
      "stateMutability": "view",
      "type": "function"
    },
    {
      "inputs": [
        {
          "internalType": "address",
          "name": "recipient",
          "type": "address"
        },
        {
          "internalType": "uint256",
          "name": "amount",
          "type": "uint256"
        }
      ],
      "name": "transfer",
      "outputs": [
        {
          "internalType": "bool",
          "name": "",
          "type": "bool"
        }
      ],
      "stateMutability": "nonpayable",
      "type": "function"
    },
    {
      "inputs": [
        {
          "internalType": "address",
          "name": "sender",
          "type": "address"
        },
        {
          "internalType": "address",
          "name": "recipient",
          "type": "address"
        },
        {
          "internalType": "uint256",
          "name": "amount",
          "type": "uint256"
        }
      ],
      "name": "transferFrom",
      "outputs": [
        {
          "internalType": "bool",
          "name": "",
          "type": "bool"
        }
      ],
      "stateMutability": "nonpayable",
      "type": "function"
    }
  ],
  "bytecode": "0x60806040523480156200001157600080fd5b506040516200315638038062003156833981810160405281019062000037919062000247565b6040518060400160405280600d81526020017f4c6971756964697479506f6f6c000000000000000000000000000000000000008152506040518060400160405280600281526020017f4c500000000000000000000000000000000000000000000000000000000000008152508160039080519060200190620000bb92919062000169565b508060049080519060200190620000d492919062000169565b50505082600560006101000a81548173ffffffffffffffffffffffffffffffffffffffff021916908373ffffffffffffffffffffffffffffffffffffffff16021790555081600660006101000a81548173ffffffffffffffffffffffffffffffffffffffff021916908373ffffffffffffffffffffffffffffffffffffffff1602179055508060088190555050505062000374565b8280546200017790620002db565b90600052602060002090601f0160209004810192826200019b5760008555620001e7565b82601f10620001b657805160ff1916838001178555620001e7565b82800160010185558215620001e7579182015b82811115620001e6578251825591602001919060010190620001c9565b5b509050620001f69190620001fa565b5090565b5b8082111562000215576000816000905550600101620001fb565b5090565b6000815190506200022a8162000340565b92915050565b60008151905062000241816200035a565b92915050565b6000806000606084860312156200025d57600080fd5b60006200026d8682870162000219565b9350506020620002808682870162000219565b9250506040620002938682870162000230565b9150509250925092565b6000620002aa82620002b1565b9050919050565b600073ffffffffffffffffffffffffffffffffffffffff82169050919050565b6000819050919050565b60006002820490506001821680620002f457607f821691505b602082108114156200030b576200030a62000311565b5b50919050565b7f4e487b7100000000000000000000000000000000000000000000000000000000600052602260045260246000fd5b6200034b816200029d565b81146200035757600080fd5b50565b6200036581620002d1565b81146200037157600080fd5b50565b612dd280620003846000396000f3fe608060405234801561001057600080fd5b50600436106101215760003560e01c806370a08231116100ad578063a9059cbb11610071578063a9059cbb14610320578063af2ba65c14610350578063d21220a714610380578063dd62ed3e1461039e578063f324f936146103ce57610121565b806370a08231146102685780639008df901461029857806395d89b41146102b45780639af1d35a146102d2578063a457c2d7146102f057610121565b806325be124e116100f457806325be124e146101c25780633035aa9c146101e0578063313ce567146101fe578063395093511461021c5780633950a3111461024c57610121565b806306fdde0314610126578063095ea7b31461014457806318160ddd1461017457806323b872dd14610192575b600080fd5b61012e6103ea565b60405161013b919061253b565b60405180910390f35b61015e6004803603810190610159919061214c565b61047c565b60405161016b91906124a5565b60405180910390f35b61017c61049a565b60405161018991906126bd565b60405180910390f35b6101ac60048036038101906101a791906120fd565b6104a4565b6040516101b991906124a5565b60405180910390f35b6101ca61059c565b6040516101d791906124c0565b60405180910390f35b6101e86105c6565b6040516101f591906126bd565b60405180910390f35b61020661072d565b60405161021391906126d8565b60405180910390f35b6102366004803603810190610231919061214c565b610736565b60405161024391906124a5565b60405180910390f35b610266600480360381019061026191906121b1565b6107e2565b005b610282600480360381019061027d9190612098565b610a98565b60405161028f91906126bd565b60405180910390f35b6102b260048036038101906102ad91906121b1565b610ae0565b005b6102bc610f59565b6040516102c9919061253b565b60405180910390f35b6102da610feb565b6040516102e791906126bd565b60405180910390f35b61030a6004803603810190610305919061214c565b610ff5565b60405161031791906124a5565b60405180910390f35b61033a6004803603810190610335919061214c565b6110e0565b60405161034791906124a5565b60405180910390f35b61036a600480360381019061036591906121b1565b6110fe565b60405161037791906126bd565b60405180910390f35b61038861152f565b60405161039591906124c0565b60405180910390f35b6103b860048036038101906103b391906120c1565b611559565b6040516103c591906126bd565b60405180910390f35b6103e860048036038101906103e391906121b1565b6115e0565b005b6060600380546103f9906128f5565b80601f0160208091040260200160405190810160405280929190818152602001828054610425906128f5565b80156104725780601f1061044757610100808354040283529160200191610472565b820191906000526020600020905b81548152906001019060200180831161045557829003601f168201915b5050505050905090565b600061049061048961189a565b84846118a2565b6001905092915050565b6000600254905090565b60006104b1848484611a6d565b6000600160008673ffffffffffffffffffffffffffffffffffffffff1673ffffffffffffffffffffffffffffffffffffffff16815260200190815260200160002060006104fc61189a565b73ffffffffffffffffffffffffffffffffffffffff1673ffffffffffffffffffffffffffffffffffffffff1681526020019081526020016000205490508281101561057c576040517f08c379a0000000000000000000000000000000000000000000000000000000008152600401610573906125fd565b60405180910390fd5b6105908561058861189a565b8584036118a2565b60019150509392505050565b6000600660009054906101000a900473ffffffffffffffffffffffffffffffffffffffff16905090565b6000600660009054906101000a900473ffffffffffffffffffffffffffffffffffffffff1673ffffffffffffffffffffffffffffffffffffffff166370a08231306040518263ffffffff1660e01b8152600401610623919061242a565b60206040518083038186803b15801561063b57600080fd5b505afa15801561064f573d6000803e3d6000fd5b505050506040513d601f19601f8201168201806040525081019061067391906121ed565b600560009054906101000a900473ffffffffffffffffffffffffffffffffffffffff1673ffffffffffffffffffffffffffffffffffffffff166370a08231306040518263ffffffff1660e01b81526004016106ce919061242a565b60206040518083038186803b1580156106e657600080fd5b505afa1580156106fa573d6000803e3d6000fd5b505050506040513d601f19601f8201168201806040525081019061071e91906121ed565b6107289190612796565b905090565b60006012905090565b60006107d861074361189a565b84846001600061075161189a565b73ffffffffffffffffffffffffffffffffffffffff1673ffffffffffffffffffffffffffffffffffffffff16815260200190815260200160002060008873ffffffffffffffffffffffffffffffffffffffff1673ffffffffffffffffffffffffffffffffffffffff168152602001908152602001600020546107d3919061270f565b6118a2565b6001905092915050565b6000600181111561081c577f4e487b7100000000000000000000000000000000000000000000000000000000600052602160045260246000fd5b826001811115610855577f4e487b7100000000000000000000000000000000000000000000000000000000600052602160045260246000fd5b141561091057600560009054906101000a900473ffffffffffffffffffffffffffffffffffffffff1673ffffffffffffffffffffffffffffffffffffffff1663a9059cbb33836040518363ffffffff1660e01b81526004016108b892919061247c565b602060405180830381600087803b1580156108d257600080fd5b505af11580156108e6573d6000803e3d6000fd5b505050506040513d601f19601f8201168201806040525081019061090a9190612188565b50610a3a565b600180811115610949577f4e487b7100000000000000000000000000000000000000000000000000000000600052602160045260246000fd5b826001811115610982577f4e487b7100000000000000000000000000000000000000000000000000000000600052602160045260246000fd5b1415610a3957600660009054906101000a900473ffffffffffffffffffffffffffffffffffffffff1673ffffffffffffffffffffffffffffffffffffffff1663a9059cbb33836040518363ffffffff1660e01b81526004016109e592919061247c565b602060405180830381600087803b1580156109ff57600080fd5b505af1158015610a13573d6000803e3d6000fd5b505050506040513d601f19601f82011682018060405250810190610a379190612188565b505b5b610a443382611cee565b3373ffffffffffffffffffffffffffffffffffffffff167f254e295181a50a04805991c28c5462f1580e5cf3edc0a776a06f661aba3a55078383604051610a8c9291906124db565b60405180910390a25050565b60008060008373ffffffffffffffffffffffffffffffffffffffff1673ffffffffffffffffffffffffffffffffffffffff168152602001908152602001600020549050919050565b6000610aea6105c6565b1415610b2b576040517f08c379a0000000000000000000000000000000000000000000000000000000008152600401610b22906125dd565b60405180910390fd5b6000806001811115610b66577f4e487b7100000000000000000000000000000000000000000000000000000000600052602160045260246000fd5b836001811115610b9f577f4e487b7100000000000000000000000000000000000000000000000000000000600052602160045260246000fd5b1415610d1957610bb06000836110fe565b9050600560009054906101000a900473ffffffffffffffffffffffffffffffffffffffff1673ffffffffffffffffffffffffffffffffffffffff166323b872dd3330856040518463ffffffff1660e01b8152600401610c1193929190612445565b602060405180830381600087803b158015610c2b57600080fd5b505af1158015610c3f573d6000803e3d6000fd5b505050506040513d601f19601f82011682018060405250810190610c639190612188565b50600660009054906101000a900473ffffffffffffffffffffffffffffffffffffffff1673ffffffffffffffffffffffffffffffffffffffff1663a9059cbb33836040518363ffffffff1660e01b8152600401610cc192919061247c565b602060405180830381600087803b158015610cdb57600080fd5b505af1158015610cef573d6000803e3d6000fd5b505050506040513d601f19601f82011682018060405250810190610d139190612188565b50610f02565b600180811115610d52577f4e487b7100000000000000000000000000000000000000000000000000000000600052602160045260246000fd5b836001811115610d8b577f4e487b7100000000000000000000000000000000000000000000000000000000600052602160045260246000fd5b1415610f0157610d9c6001836110fe565b9050600560009054906101000a900473ffffffffffffffffffffffffffffffffffffffff1673ffffffffffffffffffffffffffffffffffffffff1663a9059cbb33836040518363ffffffff1660e01b8152600401610dfb92919061247c565b602060405180830381600087803b158015610e1557600080fd5b505af1158015610e29573d6000803e3d6000fd5b505050506040513d601f19601f82011682018060405250810190610e4d9190612188565b50600660009054906101000a900473ffffffffffffffffffffffffffffffffffffffff1673ffffffffffffffffffffffffffffffffffffffff166323b872dd3330856040518463ffffffff1660e01b8152600401610ead93929190612445565b602060405180830381600087803b158015610ec757600080fd5b505af1158015610edb573d6000803e3d6000fd5b505050506040513d601f19601f82011682018060405250810190610eff9190612188565b505b5b3373ffffffffffffffffffffffffffffffffffffffff167f4177ac9bcda9209497fa94372fd2a1dc30f623f6e26333f98c499cdb8b05749d848484604051610f4c93929190612504565b60405180910390a2505050565b606060048054610f68906128f5565b80601f0160208091040260200160405190810160405280929190818152602001828054610f94906128f5565b8015610fe15780601f10610fb657610100808354040283529160200191610fe1565b820191906000526020600020905b815481529060010190602001808311610fc457829003601f168201915b5050505050905090565b6000600854905090565b6000806001600061100461189a565b73ffffffffffffffffffffffffffffffffffffffff1673ffffffffffffffffffffffffffffffffffffffff16815260200190815260200160002060008573ffffffffffffffffffffffffffffffffffffffff1673ffffffffffffffffffffffffffffffffffffffff168152602001908152602001600020549050828110156110c1576040517f08c379a00000000000000000000000000000000000000000000000000000000081526004016110b89061267d565b60405180910390fd5b6110d56110cc61189a565b858584036118a2565b600191505092915050565b60006110f46110ed61189a565b8484611a6d565b6001905092915050565b6000806001811115611139577f4e487b7100000000000000000000000000000000000000000000000000000000600052602160045260246000fd5b836001811115611172577f4e487b7100000000000000000000000000000000000000000000000000000000600052602160045260246000fd5b1415611314576000600560009054906101000a900473ffffffffffffffffffffffffffffffffffffffff1673ffffffffffffffffffffffffffffffffffffffff166370a08231306040518263ffffffff1660e01b81526004016111d5919061242a565b60206040518083038186803b1580156111ed57600080fd5b505afa158015611201573d6000803e3d6000fd5b505050506040513d601f19601f8201168201806040525081019061122591906121ed565b90506000600660009054906101000a900473ffffffffffffffffffffffffffffffffffffffff1673ffffffffffffffffffffffffffffffffffffffff166370a08231306040518263ffffffff1660e01b8152600401611284919061242a565b60206040518083038186803b15801561129c57600080fd5b505afa1580156112b0573d6000803e3d6000fd5b505050506040513d601f19601f820116820180604052508101906112d491906121ed565b9050600084836112e4919061270f565b90506000816112f16105c6565b6112fb9190612765565b9050808361130991906127f0565b945050505050611529565b60018081111561134d577f4e487b7100000000000000000000000000000000000000000000000000000000600052602160045260246000fd5b836001811115611386577f4e487b7100000000000000000000000000000000000000000000000000000000600052602160045260246000fd5b1415611528576000600660009054906101000a900473ffffffffffffffffffffffffffffffffffffffff1673ffffffffffffffffffffffffffffffffffffffff166370a08231306040518263ffffffff1660e01b81526004016113e9919061242a565b60206040518083038186803b15801561140157600080fd5b505afa158015611415573d6000803e3d6000fd5b505050506040513d601f19601f8201168201806040525081019061143991906121ed565b90506000600560009054906101000a900473ffffffffffffffffffffffffffffffffffffffff1673ffffffffffffffffffffffffffffffffffffffff166370a08231306040518263ffffffff1660e01b8152600401611498919061242a565b60206040518083038186803b1580156114b057600080fd5b505afa1580156114c4573d6000803e3d6000fd5b505050506040513d601f19601f820116820180604052508101906114e891906121ed565b9050600084836114f8919061270f565b90506000816115056105c6565b61150f9190612765565b9050808361151d91906127f0565b945050505050611529565b5b92915050565b6000600560009054906101000a900473ffffffffffffffffffffffffffffffffffffffff16905090565b6000600160008473ffffffffffffffffffffffffffffffffffffffff1673ffffffffffffffffffffffffffffffffffffffff16815260200190815260200160002060008373ffffffffffffffffffffffffffffffffffffffff1673ffffffffffffffffffffffffffffffffffffffff16815260200190815260200160002054905092915050565b6000600181111561161a577f4e487b7100000000000000000000000000000000000000000000000000000000600052602160045260246000fd5b826001811115611653577f4e487b7100000000000000000000000000000000000000000000000000000000600052602160045260246000fd5b141561171057600560009054906101000a900473ffffffffffffffffffffffffffffffffffffffff1673ffffffffffffffffffffffffffffffffffffffff166323b872dd3330846040518463ffffffff1660e01b81526004016116b893929190612445565b602060405180830381600087803b1580156116d257600080fd5b505af11580156116e6573d6000803e3d6000fd5b505050506040513d601f19601f8201168201806040525081019061170a9190612188565b5061183c565b600180811115611749577f4e487b7100000000000000000000000000000000000000000000000000000000600052602160045260246000fd5b826001811115611782577f4e487b7100000000000000000000000000000000000000000000000000000000600052602160045260246000fd5b141561183b57600660009054906101000a900473ffffffffffffffffffffffffffffffffffffffff1673ffffffffffffffffffffffffffffffffffffffff166323b872dd3330846040518463ffffffff1660e01b81526004016117e793929190612445565b602060405180830381600087803b15801561180157600080fd5b505af1158015611815573d6000803e3d6000fd5b505050506040513d601f19601f820116820180604052508101906118399190612188565b505b5b6118463382611ec5565b3373ffffffffffffffffffffffffffffffffffffffff167f1d0787aee899a49ef81d0b11da9aca5455b46aefed042a41bd398d74619cab00838360405161188e9291906124db565b60405180910390a25050565b600033905090565b600073ffffffffffffffffffffffffffffffffffffffff168373ffffffffffffffffffffffffffffffffffffffff161415611912576040517f08c379a00000000000000000000000000000000000000000000000000000000081526004016119099061265d565b60405180910390fd5b600073ffffffffffffffffffffffffffffffffffffffff168273ffffffffffffffffffffffffffffffffffffffff161415611982576040517f08c379a00000000000000000000000000000000000000000000000000000000081526004016119799061259d565b60405180910390fd5b80600160008573ffffffffffffffffffffffffffffffffffffffff1673ffffffffffffffffffffffffffffffffffffffff16815260200190815260200160002060008473ffffffffffffffffffffffffffffffffffffffff1673ffffffffffffffffffffffffffffffffffffffff168152602001908152602001600020819055508173ffffffffffffffffffffffffffffffffffffffff168373ffffffffffffffffffffffffffffffffffffffff167f8c5be1e5ebec7d5bd14f71427d1e84f3dd0314c0f7b2291e5b200ac8c7c3b92583604051611a6091906126bd565b60405180910390a3505050565b600073ffffffffffffffffffffffffffffffffffffffff168373ffffffffffffffffffffffffffffffffffffffff161415611add576040517f08c379a0000000000000000000000000000000000000000000000000000000008152600401611ad49061263d565b60405180910390fd5b600073ffffffffffffffffffffffffffffffffffffffff168273ffffffffffffffffffffffffffffffffffffffff161415611b4d576040517f08c379a0000000000000000000000000000000000000000000000000000000008152600401611b449061255d565b60405180910390fd5b611b58838383612025565b60008060008573ffffffffffffffffffffffffffffffffffffffff1673ffffffffffffffffffffffffffffffffffffffff16815260200190815260200160002054905081811015611bde576040517f08c379a0000000000000000000000000000000000000000000000000000000008152600401611bd5906125bd565b60405180910390fd5b8181036000808673ffffffffffffffffffffffffffffffffffffffff1673ffffffffffffffffffffffffffffffffffffffff16815260200190815260200160002081905550816000808573ffffffffffffffffffffffffffffffffffffffff1673ffffffffffffffffffffffffffffffffffffffff1681526020019081526020016000206000828254611c71919061270f565b925050819055508273ffffffffffffffffffffffffffffffffffffffff168473ffffffffffffffffffffffffffffffffffffffff167fddf252ad1be2c89b69c2b068fc378daa952ba7f163c4a11628f55a4df523b3ef84604051611cd591906126bd565b60405180910390a3611ce884848461202a565b50505050565b600073ffffffffffffffffffffffffffffffffffffffff168273ffffffffffffffffffffffffffffffffffffffff161415611d5e576040517f08c379a0000000000000000000000000000000000000000000000000000000008152600401611d559061261d565b60405180910390fd5b611d6a82600083612025565b60008060008473ffffffffffffffffffffffffffffffffffffffff1673ffffffffffffffffffffffffffffffffffffffff16815260200190815260200160002054905081811015611df0576040517f08c379a0000000000000000000000000000000000000000000000000000000008152600401611de79061257d565b60405180910390fd5b8181036000808573ffffffffffffffffffffffffffffffffffffffff1673ffffffffffffffffffffffffffffffffffffffff168152602001908152602001600020819055508160026000828254611e4791906127f0565b92505081905550600073ffffffffffffffffffffffffffffffffffffffff168373ffffffffffffffffffffffffffffffffffffffff167fddf252ad1be2c89b69c2b068fc378daa952ba7f163c4a11628f55a4df523b3ef84604051611eac91906126bd565b60405180910390a3611ec08360008461202a565b505050565b600073ffffffffffffffffffffffffffffffffffffffff168273ffffffffffffffffffffffffffffffffffffffff161415611f35576040517f08c379a0000000000000000000000000000000000000000000000000000000008152600401611f2c9061269d565b60405180910390fd5b611f4160008383612025565b8060026000828254611f53919061270f565b92505081905550806000808473ffffffffffffffffffffffffffffffffffffffff1673ffffffffffffffffffffffffffffffffffffffff1681526020019081526020016000206000828254611fa8919061270f565b925050819055508173ffffffffffffffffffffffffffffffffffffffff16600073ffffffffffffffffffffffffffffffffffffffff167fddf252ad1be2c89b69c2b068fc378daa952ba7f163c4a11628f55a4df523b3ef8360405161200d91906126bd565b60405180910390a36120216000838361202a565b5050565b505050565b505050565b60008135905061203e81612d47565b92915050565b60008151905061205381612d5e565b92915050565b60008135905061206881612d75565b92915050565b60008135905061207d81612d85565b92915050565b60008151905061209281612d85565b92915050565b6000602082840312156120aa57600080fd5b60006120b88482850161202f565b91505092915050565b600080604083850312156120d457600080fd5b60006120e28582860161202f565b92505060206120f38582860161202f565b9150509250929050565b60008060006060848603121561211257600080fd5b60006121208682870161202f565b93505060206121318682870161202f565b92505060406121428682870161206e565b9150509250925092565b6000806040838503121561215f57600080fd5b600061216d8582860161202f565b925050602061217e8582860161206e565b9150509250929050565b60006020828403121561219a57600080fd5b60006121a884828501612044565b91505092915050565b600080604083850312156121c457600080fd5b60006121d285828601612059565b92505060206121e38582860161206e565b9150509250929050565b6000602082840312156121ff57600080fd5b600061220d84828501612083565b91505092915050565b61221f81612824565b82525050565b61222e81612836565b82525050565b61223d8161288c565b82525050565b61224c816128b0565b82525050565b600061225d826126f3565b61226781856126fe565b93506122778185602086016128c2565b612280816129e3565b840191505092915050565b60006122986023836126fe565b91506122a3826129f4565b604082019050919050565b60006122bb6022836126fe565b91506122c682612a43565b604082019050919050565b60006122de6022836126fe565b91506122e982612a92565b604082019050919050565b60006123016026836126fe565b915061230c82612ae1565b604082019050919050565b60006123246024836126fe565b915061232f82612b30565b604082019050919050565b60006123476028836126fe565b915061235282612b7f565b604082019050919050565b600061236a6021836126fe565b915061237582612bce565b604082019050919050565b600061238d6025836126fe565b915061239882612c1d565b604082019050919050565b60006123b06024836126fe565b91506123bb82612c6c565b604082019050919050565b60006123d36025836126fe565b91506123de82612cbb565b604082019050919050565b60006123f6601f836126fe565b915061240182612d0a565b602082019050919050565b61241581612875565b82525050565b6124248161287f565b82525050565b600060208201905061243f6000830184612216565b92915050565b600060608201905061245a6000830186612216565b6124676020830185612216565b612474604083018461240c565b949350505050565b60006040820190506124916000830185612216565b61249e602083018461240c565b9392505050565b60006020820190506124ba6000830184612225565b92915050565b60006020820190506124d56000830184612234565b92915050565b60006040820190506124f06000830185612243565b6124fd602083018461240c565b9392505050565b60006060820190506125196000830186612243565b612526602083018561240c565b612533604083018461240c565b949350505050565b600060208201905081810360008301526125558184612252565b905092915050565b600060208201905081810360008301526125768161228b565b9050919050565b60006020820190508181036000830152612596816122ae565b9050919050565b600060208201905081810360008301526125b6816122d1565b9050919050565b600060208201905081810360008301526125d6816122f4565b9050919050565b600060208201905081810360008301526125f681612317565b9050919050565b600060208201905081810360008301526126168161233a565b9050919050565b600060208201905081810360008301526126368161235d565b9050919050565b6000602082019050818103600083015261265681612380565b9050919050565b60006020820190508181036000830152612676816123a3565b9050919050565b60006020820190508181036000830152612696816123c6565b9050919050565b600060208201905081810360008301526126b6816123e9565b9050919050565b60006020820190506126d2600083018461240c565b92915050565b60006020820190506126ed600083018461241b565b92915050565b600081519050919050565b600082825260208201905092915050565b600061271a82612875565b915061272583612875565b9250827fffffffffffffffffffffffffffffffffffffffffffffffffffffffffffffffff0382111561275a57612759612927565b5b828201905092915050565b600061277082612875565b915061277b83612875565b92508261278b5761278a612956565b5b828204905092915050565b60006127a182612875565b91506127ac83612875565b9250817fffffffffffffffffffffffffffffffffffffffffffffffffffffffffffffffff04831182151516156127e5576127e4612927565b5b828202905092915050565b60006127fb82612875565b915061280683612875565b92508282101561281957612818612927565b5b828203905092915050565b600061282f82612855565b9050919050565b60008115159050919050565b600081905061285082612d33565b919050565b600073ffffffffffffffffffffffffffffffffffffffff82169050919050565b6000819050919050565b600060ff82169050919050565b60006128978261289e565b9050919050565b60006128a982612855565b9050919050565b60006128bb82612842565b9050919050565b60005b838110156128e05780820151818401526020810190506128c5565b838111156128ef576000848401525b50505050565b6000600282049050600182168061290d57607f821691505b60208210811415612921576129206129b4565b5b50919050565b7f4e487b7100000000000000000000000000000000000000000000000000000000600052601160045260246000fd5b7f4e487b7100000000000000000000000000000000000000000000000000000000600052601260045260246000fd5b7f4e487b7100000000000000000000000000000000000000000000000000000000600052602160045260246000fd5b7f4e487b7100000000000000000000000000000000000000000000000000000000600052602260045260246000fd5b6000601f19601f8301169050919050565b7f45524332303a207472616e7366657220746f20746865207a65726f206164647260008201527f6573730000000000000000000000000000000000000000000000000000000000602082015250565b7f45524332303a206275726e20616d6f756e7420657863656564732062616c616e60008201527f6365000000000000000000000000000000000000000000000000000000000000602082015250565b7f45524332303a20617070726f766520746f20746865207a65726f20616464726560008201527f7373000000000000000000000000000000000000000000000000000000000000602082015250565b7f45524332303a207472616e7366657220616d6f756e742065786365656473206260008201527f616c616e63650000000000000000000000000000000000000000000000000000602082015250565b7f506f6f6c203a20646f206e6f742068617665206c697175696469747920746f2060008201527f7377617000000000000000000000000000000000000000000000000000000000602082015250565b7f45524332303a207472616e7366657220616d6f756e742065786365656473206160008201527f6c6c6f77616e6365000000000000000000000000000000000000000000000000602082015250565b7f45524332303a206275726e2066726f6d20746865207a65726f2061646472657360008201527f7300000000000000000000000000000000000000000000000000000000000000602082015250565b7f45524332303a207472616e736665722066726f6d20746865207a65726f20616460008201527f6472657373000000000000000000000000000000000000000000000000000000602082015250565b7f45524332303a20617070726f76652066726f6d20746865207a65726f2061646460008201527f7265737300000000000000000000000000000000000000000000000000000000602082015250565b7f45524332303a2064656372656173656420616c6c6f77616e63652062656c6f7760008201527f207a65726f000000000000000000000000000000000000000000000000000000602082015250565b7f45524332303a206d696e7420746f20746865207a65726f206164647265737300600082015250565b60028110612d4457612d43612985565b5b50565b612d5081612824565b8114612d5b57600080fd5b50565b612d6781612836565b8114612d7257600080fd5b50565b60028110612d8257600080fd5b50565b612d8e81612875565b8114612d9957600080fd5b5056fea2646970667358221220cd8c4adad9704454a6205111b09711fd0b84e493764991aec4ebc3c9bd69766564736f6c63430008040033",
  "linkReferences": {},
  "deployedLinkReferences": {}
}