{
  "_format": "hh-sol-artifact-1",
  "contractName": "Token2",
  "sourceName": "contracts/Token2.sol",
  "abi": [
    {
      "inputs": [
        {
          "internalType": "address",
          "name": "reserve_",
          "type": "address"
        },
        {
          "internalType": "uint256",
          "name": "initialSupply",
          "type": "uint256"
        }
      ],
      "stateMutability": "nonpayable",
      "type": "constructor"
    },
    {
      "anonymous": false,
      "inputs": [
        {
          "indexed": true,
          "internalType": "address",
          "name": "owner",
          "type": "address"
        },
        {
          "indexed": true,
          "internalType": "address",
          "name": "spender",
          "type": "address"
        },
        {
          "indexed": false,
          "internalType": "uint256",
          "name": "value",
          "type": "uint256"
        }
      ],
      "name": "Approval",
      "type": "event"
    },
    {
      "anonymous": false,
      "inputs": [
        {
          "indexed": true,
          "internalType": "address",
          "name": "from",
          "type": "address"
        },
        {
          "indexed": true,
          "internalType": "address",
          "name": "to",
          "type": "address"
        },
        {
          "indexed": false,
          "internalType": "uint256",
          "name": "value",
          "type": "uint256"
        }
      ],
      "name": "Transfer",
      "type": "event"
    },
    {
      "inputs": [
        {
          "internalType": "address",
          "name": "owner",
          "type": "address"
        },
        {
          "internalType": "address",
          "name": "spender",
          "type": "address"
        }
      ],
      "name": "allowance",
      "outputs": [
        {
          "internalType": "uint256",
          "name": "",
          "type": "uint256"
        }
      ],
      "stateMutability": "view",
      "type": "function"
    },
    {
      "inputs": [
        {
          "internalType": "address",
          "name": "spender",
          "type": "address"
        },
        {
          "internalType": "uint256",
          "name": "amount",
          "type": "uint256"
        }
      ],
      "name": "approve",
      "outputs": [
        {
          "internalType": "bool",
          "name": "",
          "type": "bool"
        }
      ],
      "stateMutability": "nonpayable",
      "type": "function"
    },
    {
      "inputs": [
        {
          "internalType": "address",
          "name": "account",
          "type": "address"
        }
      ],
      "name": "balanceOf",
      "outputs": [
        {
          "internalType": "uint256",
          "name": "",
          "type": "uint256"
        }
      ],
      "stateMutability": "view",
      "type": "function"
    },
    {
      "inputs": [],
      "name": "decimals",
      "outputs": [
        {
          "internalType": "uint8",
          "name": "",
          "type": "uint8"
        }
      ],
      "stateMutability": "view",
      "type": "function"
    },
    {
      "inputs": [
        {
          "internalType": "address",
          "name": "spender",
          "type": "address"
        },
        {
          "internalType": "uint256",
          "name": "subtractedValue",
          "type": "uint256"
        }
      ],
      "name": "decreaseAllowance",
      "outputs": [
        {
          "internalType": "bool",
          "name": "",
          "type": "bool"
        }
      ],
      "stateMutability": "nonpayable",
      "type": "function"
    },
    {
      "inputs": [
        {
          "internalType": "address",
          "name": "spender",
          "type": "address"
        },
        {
          "internalType": "uint256",
          "name": "addedValue",
          "type": "uint256"
        }
      ],
      "name": "increaseAllowance",
      "outputs": [
        {
          "internalType": "bool",
          "name": "",
          "type": "bool"
        }
      ],
      "stateMutability": "nonpayable",
      "type": "function"
    },
    {
      "inputs": [],
      "name": "name",
      "outputs": [
        {
          "internalType": "string",
          "name": "",
          "type": "string"
        }
      ],
      "stateMutability": "view",
      "type": "function"
    },
    {
      "inputs": [],
      "name": "reserve",
      "outputs": [
        {
          "internalType": "address",
          "name": "",
          "type": "address"
        }
      ],
      "stateMutability": "view",
      "type": "function"
    },
    {
      "inputs": [],
      "name": "symbol",
      "outputs": [
        {
          "internalType": "string",
          "name": "",
          "type": "string"
        }
      ],
      "stateMutability": "view",
      "type": "function"
    },
    {
      "inputs": [],
      "name": "totalSupply",
      "outputs": [
        {
          "internalType": "uint256",
          "name": "",
          "type": "uint256"
        }
      ],
      "stateMutability": "view",
      "type": "function"
    },
    {
      "inputs": [
        {
          "internalType": "address",
          "name": "recipient",
          "type": "address"
        },
        {
          "internalType": "uint256",
          "name": "amount",
          "type": "uint256"
        }
      ],
      "name": "transfer",
      "outputs": [
        {
          "internalType": "bool",
          "name": "",
          "type": "bool"
        }
      ],
      "stateMutability": "nonpayable",
      "type": "function"
    },
    {
      "inputs": [
        {
          "internalType": "address",
          "name": "sender",
          "type": "address"
        },
        {
          "internalType": "address",
          "name": "recipient",
          "type": "address"
        },
        {
          "internalType": "uint256",
          "name": "amount",
          "type": "uint256"
        }
      ],
      "name": "transferFrom",
      "outputs": [
        {
          "internalType": "bool",
          "name": "",
          "type": "bool"
        }
      ],
      "stateMutability": "nonpayable",
      "type": "function"
    }
  ],
  "bytecode": "0x60806040523480156200001157600080fd5b5060405162001a0a38038062001a0a833981810160405281019062000037919062000393565b6040518060400160405280600681526020017f546f6b656e3200000000000000000000000000000000000000000000000000008152506040518060400160405280600481526020017f544b4e32000000000000000000000000000000000000000000000000000000008152508160039080519060200190620000bb929190620002b5565b508060049080519060200190620000d4929190620002b5565b50505081600560006101000a81548173ffffffffffffffffffffffffffffffffffffffff021916908373ffffffffffffffffffffffffffffffffffffffff1602179055506200012a82826200013260201b60201c565b5050620005e8565b600073ffffffffffffffffffffffffffffffffffffffff168273ffffffffffffffffffffffffffffffffffffffff161415620001a5576040517f08c379a00000000000000000000000000000000000000000000000000000000081526004016200019c906200040c565b60405180910390fd5b620001b960008383620002ab60201b60201c565b8060026000828254620001cd91906200045c565b92505081905550806000808473ffffffffffffffffffffffffffffffffffffffff1673ffffffffffffffffffffffffffffffffffffffff16815260200190815260200160002060008282546200022491906200045c565b925050819055508173ffffffffffffffffffffffffffffffffffffffff16600073ffffffffffffffffffffffffffffffffffffffff167fddf252ad1be2c89b69c2b068fc378daa952ba7f163c4a11628f55a4df523b3ef836040516200028b91906200042e565b60405180910390a3620002a760008383620002b060201b60201c565b5050565b505050565b505050565b828054620002c390620004f7565b90600052602060002090601f016020900481019282620002e7576000855562000333565b82601f106200030257805160ff191683800117855562000333565b8280016001018555821562000333579182015b828111156200033257825182559160200191906001019062000315565b5b50905062000342919062000346565b5090565b5b808211156200036157600081600090555060010162000347565b5090565b6000815190506200037681620005b4565b92915050565b6000815190506200038d81620005ce565b92915050565b60008060408385031215620003a757600080fd5b6000620003b78582860162000365565b9250506020620003ca858286016200037c565b9150509250929050565b6000620003e3601f836200044b565b9150620003f0826200058b565b602082019050919050565b6200040681620004ed565b82525050565b600060208201905081810360008301526200042781620003d4565b9050919050565b6000602082019050620004456000830184620003fb565b92915050565b600082825260208201905092915050565b60006200046982620004ed565b91506200047683620004ed565b9250827fffffffffffffffffffffffffffffffffffffffffffffffffffffffffffffffff03821115620004ae57620004ad6200052d565b5b828201905092915050565b6000620004c682620004cd565b9050919050565b600073ffffffffffffffffffffffffffffffffffffffff82169050919050565b6000819050919050565b600060028204905060018216806200051057607f821691505b602082108114156200052757620005266200055c565b5b50919050565b7f4e487b7100000000000000000000000000000000000000000000000000000000600052601160045260246000fd5b7f4e487b7100000000000000000000000000000000000000000000000000000000600052602260045260246000fd5b7f45524332303a206d696e7420746f20746865207a65726f206164647265737300600082015250565b620005bf81620004b9565b8114620005cb57600080fd5b50565b620005d981620004ed565b8114620005e557600080fd5b50565b61141280620005f86000396000f3fe608060405234801561001057600080fd5b50600436106100b45760003560e01c806370a082311161007157806370a08231146101a357806395d89b41146101d3578063a457c2d7146101f1578063a9059cbb14610221578063cd3293de14610251578063dd62ed3e1461026f576100b4565b806306fdde03146100b9578063095ea7b3146100d757806318160ddd1461010757806323b872dd14610125578063313ce567146101555780633950935114610173575b600080fd5b6100c161029f565b6040516100ce9190610eb2565b60405180910390f35b6100f160048036038101906100ec9190610cd6565b610331565b6040516100fe9190610e97565b60405180910390f35b61010f61034f565b60405161011c9190610fb4565b60405180910390f35b61013f600480360381019061013a9190610c87565b610359565b60405161014c9190610e97565b60405180910390f35b61015d610451565b60405161016a9190610fcf565b60405180910390f35b61018d60048036038101906101889190610cd6565b61045a565b60405161019a9190610e97565b60405180910390f35b6101bd60048036038101906101b89190610c22565b610506565b6040516101ca9190610fb4565b60405180910390f35b6101db61054e565b6040516101e89190610eb2565b60405180910390f35b61020b60048036038101906102069190610cd6565b6105e0565b6040516102189190610e97565b60405180910390f35b61023b60048036038101906102369190610cd6565b6106cb565b6040516102489190610e97565b60405180910390f35b6102596106e9565b6040516102669190610e7c565b60405180910390f35b61028960048036038101906102849190610c4b565b610713565b6040516102969190610fb4565b60405180910390f35b6060600380546102ae906110e4565b80601f01602080910402602001604051908101604052809291908181526020018280546102da906110e4565b80156103275780601f106102fc57610100808354040283529160200191610327565b820191906000526020600020905b81548152906001019060200180831161030a57829003601f168201915b5050505050905090565b600061034561033e61079a565b84846107a2565b6001905092915050565b6000600254905090565b600061036684848461096d565b6000600160008673ffffffffffffffffffffffffffffffffffffffff1673ffffffffffffffffffffffffffffffffffffffff16815260200190815260200160002060006103b161079a565b73ffffffffffffffffffffffffffffffffffffffff1673ffffffffffffffffffffffffffffffffffffffff16815260200190815260200160002054905082811015610431576040517f08c379a000000000000000000000000000000000000000000000000000000000815260040161042890610f34565b60405180910390fd5b6104458561043d61079a565b8584036107a2565b60019150509392505050565b60006012905090565b60006104fc61046761079a565b84846001600061047561079a565b73ffffffffffffffffffffffffffffffffffffffff1673ffffffffffffffffffffffffffffffffffffffff16815260200190815260200160002060008873ffffffffffffffffffffffffffffffffffffffff1673ffffffffffffffffffffffffffffffffffffffff168152602001908152602001600020546104f79190611006565b6107a2565b6001905092915050565b60008060008373ffffffffffffffffffffffffffffffffffffffff1673ffffffffffffffffffffffffffffffffffffffff168152602001908152602001600020549050919050565b60606004805461055d906110e4565b80601f0160208091040260200160405190810160405280929190818152602001828054610589906110e4565b80156105d65780601f106105ab576101008083540402835291602001916105d6565b820191906000526020600020905b8154815290600101906020018083116105b957829003601f168201915b5050505050905090565b600080600160006105ef61079a565b73ffffffffffffffffffffffffffffffffffffffff1673ffffffffffffffffffffffffffffffffffffffff16815260200190815260200160002060008573ffffffffffffffffffffffffffffffffffffffff1673ffffffffffffffffffffffffffffffffffffffff168152602001908152602001600020549050828110156106ac576040517f08c379a00000000000000000000000000000000000000000000000000000000081526004016106a390610f94565b60405180910390fd5b6106c06106b761079a565b858584036107a2565b600191505092915050565b60006106df6106d861079a565b848461096d565b6001905092915050565b6000600560009054906101000a900473ffffffffffffffffffffffffffffffffffffffff16905090565b6000600160008473ffffffffffffffffffffffffffffffffffffffff1673ffffffffffffffffffffffffffffffffffffffff16815260200190815260200160002060008373ffffffffffffffffffffffffffffffffffffffff1673ffffffffffffffffffffffffffffffffffffffff16815260200190815260200160002054905092915050565b600033905090565b600073ffffffffffffffffffffffffffffffffffffffff168373ffffffffffffffffffffffffffffffffffffffff161415610812576040517f08c379a000000000000000000000000000000000000000000000000000000000815260040161080990610f74565b60405180910390fd5b600073ffffffffffffffffffffffffffffffffffffffff168273ffffffffffffffffffffffffffffffffffffffff161415610882576040517f08c379a000000000000000000000000000000000000000000000000000000000815260040161087990610ef4565b60405180910390fd5b80600160008573ffffffffffffffffffffffffffffffffffffffff1673ffffffffffffffffffffffffffffffffffffffff16815260200190815260200160002060008473ffffffffffffffffffffffffffffffffffffffff1673ffffffffffffffffffffffffffffffffffffffff168152602001908152602001600020819055508173ffffffffffffffffffffffffffffffffffffffff168373ffffffffffffffffffffffffffffffffffffffff167f8c5be1e5ebec7d5bd14f71427d1e84f3dd0314c0f7b2291e5b200ac8c7c3b925836040516109609190610fb4565b60405180910390a3505050565b600073ffffffffffffffffffffffffffffffffffffffff168373ffffffffffffffffffffffffffffffffffffffff1614156109dd576040517f08c379a00000000000000000000000000000000000000000000000000000000081526004016109d490610f54565b60405180910390fd5b600073ffffffffffffffffffffffffffffffffffffffff168273ffffffffffffffffffffffffffffffffffffffff161415610a4d576040517f08c379a0000000000000000000000000000000000000000000000000000000008152600401610a4490610ed4565b60405180910390fd5b610a58838383610bee565b60008060008573ffffffffffffffffffffffffffffffffffffffff1673ffffffffffffffffffffffffffffffffffffffff16815260200190815260200160002054905081811015610ade576040517f08c379a0000000000000000000000000000000000000000000000000000000008152600401610ad590610f14565b60405180910390fd5b8181036000808673ffffffffffffffffffffffffffffffffffffffff1673ffffffffffffffffffffffffffffffffffffffff16815260200190815260200160002081905550816000808573ffffffffffffffffffffffffffffffffffffffff1673ffffffffffffffffffffffffffffffffffffffff1681526020019081526020016000206000828254610b719190611006565b925050819055508273ffffffffffffffffffffffffffffffffffffffff168473ffffffffffffffffffffffffffffffffffffffff167fddf252ad1be2c89b69c2b068fc378daa952ba7f163c4a11628f55a4df523b3ef84604051610bd59190610fb4565b60405180910390a3610be8848484610bf3565b50505050565b505050565b505050565b600081359050610c07816113ae565b92915050565b600081359050610c1c816113c5565b92915050565b600060208284031215610c3457600080fd5b6000610c4284828501610bf8565b91505092915050565b60008060408385031215610c5e57600080fd5b6000610c6c85828601610bf8565b9250506020610c7d85828601610bf8565b9150509250929050565b600080600060608486031215610c9c57600080fd5b6000610caa86828701610bf8565b9350506020610cbb86828701610bf8565b9250506040610ccc86828701610c0d565b9150509250925092565b60008060408385031215610ce957600080fd5b6000610cf785828601610bf8565b9250506020610d0885828601610c0d565b9150509250929050565b610d1b8161105c565b82525050565b610d2a8161106e565b82525050565b6000610d3b82610fea565b610d458185610ff5565b9350610d558185602086016110b1565b610d5e81611174565b840191505092915050565b6000610d76602383610ff5565b9150610d8182611185565b604082019050919050565b6000610d99602283610ff5565b9150610da4826111d4565b604082019050919050565b6000610dbc602683610ff5565b9150610dc782611223565b604082019050919050565b6000610ddf602883610ff5565b9150610dea82611272565b604082019050919050565b6000610e02602583610ff5565b9150610e0d826112c1565b604082019050919050565b6000610e25602483610ff5565b9150610e3082611310565b604082019050919050565b6000610e48602583610ff5565b9150610e538261135f565b604082019050919050565b610e678161109a565b82525050565b610e76816110a4565b82525050565b6000602082019050610e916000830184610d12565b92915050565b6000602082019050610eac6000830184610d21565b92915050565b60006020820190508181036000830152610ecc8184610d30565b905092915050565b60006020820190508181036000830152610eed81610d69565b9050919050565b60006020820190508181036000830152610f0d81610d8c565b9050919050565b60006020820190508181036000830152610f2d81610daf565b9050919050565b60006020820190508181036000830152610f4d81610dd2565b9050919050565b60006020820190508181036000830152610f6d81610df5565b9050919050565b60006020820190508181036000830152610f8d81610e18565b9050919050565b60006020820190508181036000830152610fad81610e3b565b9050919050565b6000602082019050610fc96000830184610e5e565b92915050565b6000602082019050610fe46000830184610e6d565b92915050565b600081519050919050565b600082825260208201905092915050565b60006110118261109a565b915061101c8361109a565b9250827fffffffffffffffffffffffffffffffffffffffffffffffffffffffffffffffff0382111561105157611050611116565b5b828201905092915050565b60006110678261107a565b9050919050565b60008115159050919050565b600073ffffffffffffffffffffffffffffffffffffffff82169050919050565b6000819050919050565b600060ff82169050919050565b60005b838110156110cf5780820151818401526020810190506110b4565b838111156110de576000848401525b50505050565b600060028204905060018216806110fc57607f821691505b602082108114156111105761110f611145565b5b50919050565b7f4e487b7100000000000000000000000000000000000000000000000000000000600052601160045260246000fd5b7f4e487b7100000000000000000000000000000000000000000000000000000000600052602260045260246000fd5b6000601f19601f8301169050919050565b7f45524332303a207472616e7366657220746f20746865207a65726f206164647260008201527f6573730000000000000000000000000000000000000000000000000000000000602082015250565b7f45524332303a20617070726f766520746f20746865207a65726f20616464726560008201527f7373000000000000000000000000000000000000000000000000000000000000602082015250565b7f45524332303a207472616e7366657220616d6f756e742065786365656473206260008201527f616c616e63650000000000000000000000000000000000000000000000000000602082015250565b7f45524332303a207472616e7366657220616d6f756e742065786365656473206160008201527f6c6c6f77616e6365000000000000000000000000000000000000000000000000602082015250565b7f45524332303a207472616e736665722066726f6d20746865207a65726f20616460008201527f6472657373000000000000000000000000000000000000000000000000000000602082015250565b7f45524332303a20617070726f76652066726f6d20746865207a65726f2061646460008201527f7265737300000000000000000000000000000000000000000000000000000000602082015250565b7f45524332303a2064656372656173656420616c6c6f77616e63652062656c6f7760008201527f207a65726f000000000000000000000000000000000000000000000000000000602082015250565b6113b78161105c565b81146113c257600080fd5b50565b6113ce8161109a565b81146113d957600080fd5b5056fea26469706673582212200d44e76b796df11381df1362bea1d31377a67407b1cd51569cdd3dfa20727a1764736f6c63430008040033",
  "linkReferences": {},
  "deployedLinkReferences": {}
}