{
  "_format": "hh-sol-artifact-1",
  "contractName": "PoolFactory",
  "sourceName": "contracts/PoolFactory.sol",
  "abi": [
    {
      "inputs": [
        {
          "internalType": "address",
          "name": "owner_",
          "type": "address"
        }
      ],
      "stateMutability": "nonpayable",
      "type": "constructor"
    },
    {
      "anonymous": false,
      "inputs": [
        {
          "indexed": true,
          "internalType": "address",
          "name": "sender",
          "type": "address"
        },
        {
          "indexed": false,
          "internalType": "address",
          "name": "token1",
          "type": "address"
        },
        {
          "indexed": false,
          "internalType": "address",
          "name": "token2",
          "type": "address"
        }
      ],
      "name": "Created",
      "type": "event"
    },
    {
      "anonymous": false,
      "inputs": [
        {
          "indexed": false,
          "internalType": "address",
          "name": "oldOwner",
          "type": "address"
        },
        {
          "indexed": false,
          "internalType": "address",
          "name": "newOwner",
          "type": "address"
        }
      ],
      "name": "OwnerSet",
      "type": "event"
    },
    {
      "inputs": [
        {
          "internalType": "address",
          "name": "tokenA",
          "type": "address"
        },
        {
          "internalType": "address",
          "name": "tokenB",
          "type": "address"
        },
        {
          "internalType": "uint256",
          "name": "fees",
          "type": "uint256"
        }
      ],
      "name": "create",
      "outputs": [],
      "stateMutability": "nonpayable",
      "type": "function"
    },
    {
      "inputs": [
        {
          "internalType": "address",
          "name": "tokenA",
          "type": "address"
        },
        {
          "internalType": "address",
          "name": "tokenB",
          "type": "address"
        },
        {
          "internalType": "uint256",
          "name": "fees",
          "type": "uint256"
        }
      ],
      "name": "getPoolAddressByInfo",
      "outputs": [
        {
          "internalType": "address",
          "name": "",
          "type": "address"
        }
      ],
      "stateMutability": "view",
      "type": "function"
    },
    {
      "inputs": [],
      "name": "owner",
      "outputs": [
        {
          "internalType": "address",
          "name": "",
          "type": "address"
        }
      ],
      "stateMutability": "view",
      "type": "function"
    },
    {
      "inputs": [
        {
          "internalType": "address",
          "name": "owner_",
          "type": "address"
        }
      ],
      "name": "setOwner",
      "outputs": [],
      "stateMutability": "nonpayable",
      "type": "function"
    }
  ],
  "bytecode": "0x608060405234801561001057600080fd5b50604051613abf380380613abf8339818101604052810190610032919061008d565b806000806101000a81548173ffffffffffffffffffffffffffffffffffffffff021916908373ffffffffffffffffffffffffffffffffffffffff160217905550506100ff565b600081519050610087816100e8565b92915050565b60006020828403121561009f57600080fd5b60006100ad84828501610078565b91505092915050565b60006100c1826100c8565b9050919050565b600073ffffffffffffffffffffffffffffffffffffffff82169050919050565b6100f1816100b6565b81146100fc57600080fd5b50565b6139b18061010e6000396000f3fe60806040523480156200001157600080fd5b5060043610620000525760003560e01c806313af403514620000575780638da5cb5b1462000077578063e55e889f1462000099578063ffe5725f14620000cf575b600080fd5b6200007560048036038101906200006f919062000670565b620000ef565b005b620000816200021e565b60405162000090919062000789565b60405180910390f35b620000b76004803603810190620000b191906200069c565b62000247565b604051620000c6919062000789565b60405180910390f35b620000ed6004803603810190620000e791906200069c565b62000348565b005b60008054906101000a900473ffffffffffffffffffffffffffffffffffffffff1673ffffffffffffffffffffffffffffffffffffffff163373ffffffffffffffffffffffffffffffffffffffff161462000180576040517f08c379a0000000000000000000000000000000000000000000000000000000008152600401620001779062000810565b60405180910390fd5b7f342827c97908e5e2f71151c08502a66d44b6f758e3ac2f1de95f02eb95f0a73560008054906101000a900473ffffffffffffffffffffffffffffffffffffffff1682604051620001d3929190620007a6565b60405180910390a1806000806101000a81548173ffffffffffffffffffffffffffffffffffffffff021916908373ffffffffffffffffffffffffffffffffffffffff16021790555050565b60008060009054906101000a900473ffffffffffffffffffffffffffffffffffffffff16905090565b60008060008473ffffffffffffffffffffffffffffffffffffffff168673ffffffffffffffffffffffffffffffffffffffff1610620002885784866200028b565b85855b91509150600160008373ffffffffffffffffffffffffffffffffffffffff1673ffffffffffffffffffffffffffffffffffffffff16815260200190815260200160002060008273ffffffffffffffffffffffffffffffffffffffff1673ffffffffffffffffffffffffffffffffffffffff168152602001908152602001600020600085815260200190815260200160002060009054906101000a900473ffffffffffffffffffffffffffffffffffffffff16925050509392505050565b8173ffffffffffffffffffffffffffffffffffffffff168373ffffffffffffffffffffffffffffffffffffffff161415620003ba576040517f08c379a0000000000000000000000000000000000000000000000000000000008152600401620003b19062000832565b60405180910390fd5b6000808373ffffffffffffffffffffffffffffffffffffffff168573ffffffffffffffffffffffffffffffffffffffff1610620003f9578385620003fc565b84845b91509150600073ffffffffffffffffffffffffffffffffffffffff16600160008473ffffffffffffffffffffffffffffffffffffffff1673ffffffffffffffffffffffffffffffffffffffff16815260200190815260200160002060008373ffffffffffffffffffffffffffffffffffffffff1673ffffffffffffffffffffffffffffffffffffffff168152602001908152602001600020600085815260200190815260200160002060009054906101000a900473ffffffffffffffffffffffffffffffffffffffff1673ffffffffffffffffffffffffffffffffffffffff16146200051f576040517f08c379a0000000000000000000000000000000000000000000000000000000008152600401620005169062000854565b60405180910390fd5b6000828285604051620005329062000634565b6200054093929190620007d3565b604051809103906000f0801580156200055d573d6000803e3d6000fd5b50905080600160008573ffffffffffffffffffffffffffffffffffffffff1673ffffffffffffffffffffffffffffffffffffffff16815260200190815260200160002060008473ffffffffffffffffffffffffffffffffffffffff1673ffffffffffffffffffffffffffffffffffffffff168152602001908152602001600020600086815260200190815260200160002060006101000a81548173ffffffffffffffffffffffffffffffffffffffff021916908373ffffffffffffffffffffffffffffffffffffffff160217905550505050505050565b612f9580620009e783390190565b6000813590506200065381620009b2565b92915050565b6000813590506200066a81620009cc565b92915050565b6000602082840312156200068357600080fd5b6000620006938482850162000642565b91505092915050565b600080600060608486031215620006b257600080fd5b6000620006c28682870162000642565b9350506020620006d58682870162000642565b9250506040620006e88682870162000659565b9150509250925092565b620006fd8162000887565b82525050565b600062000712602a8362000876565b91506200071f82620008c5565b604082019050919050565b600062000739602c8362000876565b9150620007468262000914565b604082019050919050565b60006200076060268362000876565b91506200076d8262000963565b604082019050919050565b6200078381620008bb565b82525050565b6000602082019050620007a06000830184620006f2565b92915050565b6000604082019050620007bd6000830185620006f2565b620007cc6020830184620006f2565b9392505050565b6000606082019050620007ea6000830186620006f2565b620007f96020830185620006f2565b62000808604083018462000778565b949350505050565b600060208201905081810360008301526200082b8162000703565b9050919050565b600060208201905081810360008301526200084d816200072a565b9050919050565b600060208201905081810360008301526200086f8162000751565b9050919050565b600082825260208201905092915050565b600062000894826200089b565b9050919050565b600073ffffffffffffffffffffffffffffffffffffffff82169050919050565b6000819050919050565b7f506f6f6c466163746f7279203a206f6e6c79206f776e65722063616e2073657460008201527f206e6577206f776e657200000000000000000000000000000000000000000000602082015250565b7f506f6f6c466163746f7279203a20796f752063616e6e6f74207061697220746860008201527f652073616d6520746f6b656e0000000000000000000000000000000000000000602082015250565b7f506f6f6c466163746f7279203a207468697320706f6f6c20616c72656461792060008201527f6578697374730000000000000000000000000000000000000000000000000000602082015250565b620009bd8162000887565b8114620009c957600080fd5b50565b620009d781620008bb565b8114620009e357600080fd5b5056fe60806040523480156200001157600080fd5b5060405162002f9538038062002f95833981810160405281019062000037919062000247565b6040518060400160405280600d81526020017f4c6971756964697479506f6f6c000000000000000000000000000000000000008152506040518060400160405280600281526020017f4c500000000000000000000000000000000000000000000000000000000000008152508160039080519060200190620000bb92919062000169565b508060049080519060200190620000d492919062000169565b50505082600560006101000a81548173ffffffffffffffffffffffffffffffffffffffff021916908373ffffffffffffffffffffffffffffffffffffffff16021790555081600660006101000a81548173ffffffffffffffffffffffffffffffffffffffff021916908373ffffffffffffffffffffffffffffffffffffffff1602179055508060088190555050505062000374565b8280546200017790620002db565b90600052602060002090601f0160209004810192826200019b5760008555620001e7565b82601f10620001b657805160ff1916838001178555620001e7565b82800160010185558215620001e7579182015b82811115620001e6578251825591602001919060010190620001c9565b5b509050620001f69190620001fa565b5090565b5b8082111562000215576000816000905550600101620001fb565b5090565b6000815190506200022a8162000340565b92915050565b60008151905062000241816200035a565b92915050565b6000806000606084860312156200025d57600080fd5b60006200026d8682870162000219565b9350506020620002808682870162000219565b9250506040620002938682870162000230565b9150509250925092565b6000620002aa82620002b1565b9050919050565b600073ffffffffffffffffffffffffffffffffffffffff82169050919050565b6000819050919050565b60006002820490506001821680620002f457607f821691505b602082108114156200030b576200030a62000311565b5b50919050565b7f4e487b7100000000000000000000000000000000000000000000000000000000600052602260045260246000fd5b6200034b816200029d565b81146200035757600080fd5b50565b6200036581620002d1565b81146200037157600080fd5b50565b612c1180620003846000396000f3fe608060405234801561001057600080fd5b50600436106101215760003560e01c80634aa06652116100ad578063a457c2d711610071578063a457c2d714610320578063a9059cbb14610350578063d21220a714610380578063dd62ed3e1461039e578063f324f936146103ce57610121565b80634aa066521461026857806370a08231146102985780639008df90146102c857806395d89b41146102e45780639af1d35a1461030257610121565b806325be124e116100f457806325be124e146101c25780633035aa9c146101e0578063313ce567146101fe578063395093511461021c5780633950a3111461024c57610121565b806306fdde0314610126578063095ea7b31461014457806318160ddd1461017457806323b872dd14610192575b600080fd5b61012e6103ea565b60405161013b9190612351565b60405180910390f35b61015e60048036038101906101599190611f13565b61047c565b60405161016b91906122bb565b60405180910390f35b61017c61049a565b60405161018991906124d3565b60405180910390f35b6101ac60048036038101906101a79190611ec4565b6104a4565b6040516101b991906122bb565b60405180910390f35b6101ca61059c565b6040516101d791906122d6565b60405180910390f35b6101e86105c6565b6040516101f591906124d3565b60405180910390f35b61020661072d565b60405161021391906124ee565b60405180910390f35b61023660048036038101906102319190611f13565b610736565b60405161024391906122bb565b60405180910390f35b61026660048036038101906102619190611fc7565b6107e2565b005b610282600480360381019061027d9190611f78565b610a98565b60405161028f91906124d3565b60405180910390f35b6102b260048036038101906102ad9190611e5f565b610bf3565b6040516102bf91906124d3565b60405180910390f35b6102e260048036038101906102dd9190611fc7565b610c3b565b005b6102ec61113c565b6040516102f99190612351565b60405180910390f35b61030a6111ce565b60405161031791906124d3565b60405180910390f35b61033a60048036038101906103359190611f13565b6111d8565b60405161034791906122bb565b60405180910390f35b61036a60048036038101906103659190611f13565b6112c3565b60405161037791906122bb565b60405180910390f35b6103886112e1565b60405161039591906122d6565b60405180910390f35b6103b860048036038101906103b39190611e88565b61130b565b6040516103c591906124d3565b60405180910390f35b6103e860048036038101906103e39190611fc7565b611392565b005b6060600380546103f99061271d565b80601f01602080910402602001604051908101604052809291908181526020018280546104259061271d565b80156104725780601f1061044757610100808354040283529160200191610472565b820191906000526020600020905b81548152906001019060200180831161045557829003601f168201915b5050505050905090565b600061049061048961164c565b8484611654565b6001905092915050565b6000600254905090565b60006104b184848461181f565b6000600160008673ffffffffffffffffffffffffffffffffffffffff1673ffffffffffffffffffffffffffffffffffffffff16815260200190815260200160002060006104fc61164c565b73ffffffffffffffffffffffffffffffffffffffff1673ffffffffffffffffffffffffffffffffffffffff1681526020019081526020016000205490508281101561057c576040517f08c379a000000000000000000000000000000000000000000000000000000000815260040161057390612413565b60405180910390fd5b6105908561058861164c565b858403611654565b60019150509392505050565b6000600660009054906101000a900473ffffffffffffffffffffffffffffffffffffffff16905090565b6000600660009054906101000a900473ffffffffffffffffffffffffffffffffffffffff1673ffffffffffffffffffffffffffffffffffffffff166370a08231306040518263ffffffff1660e01b81526004016106239190612240565b60206040518083038186803b15801561063b57600080fd5b505afa15801561064f573d6000803e3d6000fd5b505050506040513d601f19601f820116820180604052508101906106739190612003565b600560009054906101000a900473ffffffffffffffffffffffffffffffffffffffff1673ffffffffffffffffffffffffffffffffffffffff166370a08231306040518263ffffffff1660e01b81526004016106ce9190612240565b60206040518083038186803b1580156106e657600080fd5b505afa1580156106fa573d6000803e3d6000fd5b505050506040513d601f19601f8201168201806040525081019061071e9190612003565b61072891906125ac565b905090565b60006012905090565b60006107d861074361164c565b84846001600061075161164c565b73ffffffffffffffffffffffffffffffffffffffff1673ffffffffffffffffffffffffffffffffffffffff16815260200190815260200160002060008873ffffffffffffffffffffffffffffffffffffffff1673ffffffffffffffffffffffffffffffffffffffff168152602001908152602001600020546107d39190612525565b611654565b6001905092915050565b6000600181111561081c577f4e487b7100000000000000000000000000000000000000000000000000000000600052602160045260246000fd5b826001811115610855577f4e487b7100000000000000000000000000000000000000000000000000000000600052602160045260246000fd5b141561091057600560009054906101000a900473ffffffffffffffffffffffffffffffffffffffff1673ffffffffffffffffffffffffffffffffffffffff1663a9059cbb33836040518363ffffffff1660e01b81526004016108b8929190612292565b602060405180830381600087803b1580156108d257600080fd5b505af11580156108e6573d6000803e3d6000fd5b505050506040513d601f19601f8201168201806040525081019061090a9190611f4f565b50610a3a565b600180811115610949577f4e487b7100000000000000000000000000000000000000000000000000000000600052602160045260246000fd5b826001811115610982577f4e487b7100000000000000000000000000000000000000000000000000000000600052602160045260246000fd5b1415610a3957600660009054906101000a900473ffffffffffffffffffffffffffffffffffffffff1673ffffffffffffffffffffffffffffffffffffffff1663a9059cbb33836040518363ffffffff1660e01b81526004016109e5929190612292565b602060405180830381600087803b1580156109ff57600080fd5b505af1158015610a13573d6000803e3d6000fd5b505050506040513d601f19601f82011682018060405250810190610a379190611f4f565b505b5b610a443382611aa0565b3373ffffffffffffffffffffffffffffffffffffffff167f254e295181a50a04805991c28c5462f1580e5cf3edc0a776a06f661aba3a55078383604051610a8c9291906122f1565b60405180910390a25050565b6000808473ffffffffffffffffffffffffffffffffffffffff166370a08231306040518263ffffffff1660e01b8152600401610ad49190612240565b60206040518083038186803b158015610aec57600080fd5b505afa158015610b00573d6000803e3d6000fd5b505050506040513d601f19601f82011682018060405250810190610b249190612003565b905060008473ffffffffffffffffffffffffffffffffffffffff166370a08231306040518263ffffffff1660e01b8152600401610b619190612240565b60206040518083038186803b158015610b7957600080fd5b505afa158015610b8d573d6000803e3d6000fd5b505050506040513d601f19601f82011682018060405250810190610bb19190612003565b905060008483610bc19190612525565b9050600081610bce6105c6565b610bd8919061257b565b90508083610be69190612606565b9450505050509392505050565b60008060008373ffffffffffffffffffffffffffffffffffffffff1673ffffffffffffffffffffffffffffffffffffffff168152602001908152602001600020549050919050565b6000610c456105c6565b1415610c86576040517f08c379a0000000000000000000000000000000000000000000000000000000008152600401610c7d906123f3565b60405180910390fd5b6000806001811115610cc1577f4e487b7100000000000000000000000000000000000000000000000000000000600052602160045260246000fd5b836001811115610cfa577f4e487b7100000000000000000000000000000000000000000000000000000000600052602160045260246000fd5b1415610eb857610d4f600560009054906101000a900473ffffffffffffffffffffffffffffffffffffffff16600660009054906101000a900473ffffffffffffffffffffffffffffffffffffffff1684610a98565b9050600560009054906101000a900473ffffffffffffffffffffffffffffffffffffffff1673ffffffffffffffffffffffffffffffffffffffff166323b872dd3330856040518463ffffffff1660e01b8152600401610db09392919061225b565b602060405180830381600087803b158015610dca57600080fd5b505af1158015610dde573d6000803e3d6000fd5b505050506040513d601f19601f82011682018060405250810190610e029190611f4f565b50600660009054906101000a900473ffffffffffffffffffffffffffffffffffffffff1673ffffffffffffffffffffffffffffffffffffffff1663a9059cbb33836040518363ffffffff1660e01b8152600401610e60929190612292565b602060405180830381600087803b158015610e7a57600080fd5b505af1158015610e8e573d6000803e3d6000fd5b505050506040513d601f19601f82011682018060405250810190610eb29190611f4f565b506110e5565b600180811115610ef1577f4e487b7100000000000000000000000000000000000000000000000000000000600052602160045260246000fd5b836001811115610f2a577f4e487b7100000000000000000000000000000000000000000000000000000000600052602160045260246000fd5b14156110e457610f7f600660009054906101000a900473ffffffffffffffffffffffffffffffffffffffff16600560009054906101000a900473ffffffffffffffffffffffffffffffffffffffff1684610a98565b9050600560009054906101000a900473ffffffffffffffffffffffffffffffffffffffff1673ffffffffffffffffffffffffffffffffffffffff1663a9059cbb33836040518363ffffffff1660e01b8152600401610fde929190612292565b602060405180830381600087803b158015610ff857600080fd5b505af115801561100c573d6000803e3d6000fd5b505050506040513d601f19601f820116820180604052508101906110309190611f4f565b50600660009054906101000a900473ffffffffffffffffffffffffffffffffffffffff1673ffffffffffffffffffffffffffffffffffffffff166323b872dd3330856040518463ffffffff1660e01b81526004016110909392919061225b565b602060405180830381600087803b1580156110aa57600080fd5b505af11580156110be573d6000803e3d6000fd5b505050506040513d601f19601f820116820180604052508101906110e29190611f4f565b505b5b3373ffffffffffffffffffffffffffffffffffffffff167f4177ac9bcda9209497fa94372fd2a1dc30f623f6e26333f98c499cdb8b05749d84848460405161112f9392919061231a565b60405180910390a2505050565b60606004805461114b9061271d565b80601f01602080910402602001604051908101604052809291908181526020018280546111779061271d565b80156111c45780601f10611199576101008083540402835291602001916111c4565b820191906000526020600020905b8154815290600101906020018083116111a757829003601f168201915b5050505050905090565b6000600854905090565b600080600160006111e761164c565b73ffffffffffffffffffffffffffffffffffffffff1673ffffffffffffffffffffffffffffffffffffffff16815260200190815260200160002060008573ffffffffffffffffffffffffffffffffffffffff1673ffffffffffffffffffffffffffffffffffffffff168152602001908152602001600020549050828110156112a4576040517f08c379a000000000000000000000000000000000000000000000000000000000815260040161129b90612493565b60405180910390fd5b6112b86112af61164c565b85858403611654565b600191505092915050565b60006112d76112d061164c565b848461181f565b6001905092915050565b6000600560009054906101000a900473ffffffffffffffffffffffffffffffffffffffff16905090565b6000600160008473ffffffffffffffffffffffffffffffffffffffff1673ffffffffffffffffffffffffffffffffffffffff16815260200190815260200160002060008373ffffffffffffffffffffffffffffffffffffffff1673ffffffffffffffffffffffffffffffffffffffff16815260200190815260200160002054905092915050565b600060018111156113cc577f4e487b7100000000000000000000000000000000000000000000000000000000600052602160045260246000fd5b826001811115611405577f4e487b7100000000000000000000000000000000000000000000000000000000600052602160045260246000fd5b14156114c257600560009054906101000a900473ffffffffffffffffffffffffffffffffffffffff1673ffffffffffffffffffffffffffffffffffffffff166323b872dd3330846040518463ffffffff1660e01b815260040161146a9392919061225b565b602060405180830381600087803b15801561148457600080fd5b505af1158015611498573d6000803e3d6000fd5b505050506040513d601f19601f820116820180604052508101906114bc9190611f4f565b506115ee565b6001808111156114fb577f4e487b7100000000000000000000000000000000000000000000000000000000600052602160045260246000fd5b826001811115611534577f4e487b7100000000000000000000000000000000000000000000000000000000600052602160045260246000fd5b14156115ed57600660009054906101000a900473ffffffffffffffffffffffffffffffffffffffff1673ffffffffffffffffffffffffffffffffffffffff166323b872dd3330846040518463ffffffff1660e01b81526004016115999392919061225b565b602060405180830381600087803b1580156115b357600080fd5b505af11580156115c7573d6000803e3d6000fd5b505050506040513d601f19601f820116820180604052508101906115eb9190611f4f565b505b5b6115f83382611c77565b3373ffffffffffffffffffffffffffffffffffffffff167f1d0787aee899a49ef81d0b11da9aca5455b46aefed042a41bd398d74619cab0083836040516116409291906122f1565b60405180910390a25050565b600033905090565b600073ffffffffffffffffffffffffffffffffffffffff168373ffffffffffffffffffffffffffffffffffffffff1614156116c4576040517f08c379a00000000000000000000000000000000000000000000000000000000081526004016116bb90612473565b60405180910390fd5b600073ffffffffffffffffffffffffffffffffffffffff168273ffffffffffffffffffffffffffffffffffffffff161415611734576040517f08c379a000000000000000000000000000000000000000000000000000000000815260040161172b906123b3565b60405180910390fd5b80600160008573ffffffffffffffffffffffffffffffffffffffff1673ffffffffffffffffffffffffffffffffffffffff16815260200190815260200160002060008473ffffffffffffffffffffffffffffffffffffffff1673ffffffffffffffffffffffffffffffffffffffff168152602001908152602001600020819055508173ffffffffffffffffffffffffffffffffffffffff168373ffffffffffffffffffffffffffffffffffffffff167f8c5be1e5ebec7d5bd14f71427d1e84f3dd0314c0f7b2291e5b200ac8c7c3b9258360405161181291906124d3565b60405180910390a3505050565b600073ffffffffffffffffffffffffffffffffffffffff168373ffffffffffffffffffffffffffffffffffffffff16141561188f576040517f08c379a000000000000000000000000000000000000000000000000000000000815260040161188690612453565b60405180910390fd5b600073ffffffffffffffffffffffffffffffffffffffff168273ffffffffffffffffffffffffffffffffffffffff1614156118ff576040517f08c379a00000000000000000000000000000000000000000000000000000000081526004016118f690612373565b60405180910390fd5b61190a838383611dd7565b60008060008573ffffffffffffffffffffffffffffffffffffffff1673ffffffffffffffffffffffffffffffffffffffff16815260200190815260200160002054905081811015611990576040517f08c379a0000000000000000000000000000000000000000000000000000000008152600401611987906123d3565b60405180910390fd5b8181036000808673ffffffffffffffffffffffffffffffffffffffff1673ffffffffffffffffffffffffffffffffffffffff16815260200190815260200160002081905550816000808573ffffffffffffffffffffffffffffffffffffffff1673ffffffffffffffffffffffffffffffffffffffff1681526020019081526020016000206000828254611a239190612525565b925050819055508273ffffffffffffffffffffffffffffffffffffffff168473ffffffffffffffffffffffffffffffffffffffff167fddf252ad1be2c89b69c2b068fc378daa952ba7f163c4a11628f55a4df523b3ef84604051611a8791906124d3565b60405180910390a3611a9a848484611ddc565b50505050565b600073ffffffffffffffffffffffffffffffffffffffff168273ffffffffffffffffffffffffffffffffffffffff161415611b10576040517f08c379a0000000000000000000000000000000000000000000000000000000008152600401611b0790612433565b60405180910390fd5b611b1c82600083611dd7565b60008060008473ffffffffffffffffffffffffffffffffffffffff1673ffffffffffffffffffffffffffffffffffffffff16815260200190815260200160002054905081811015611ba2576040517f08c379a0000000000000000000000000000000000000000000000000000000008152600401611b9990612393565b60405180910390fd5b8181036000808573ffffffffffffffffffffffffffffffffffffffff1673ffffffffffffffffffffffffffffffffffffffff168152602001908152602001600020819055508160026000828254611bf99190612606565b92505081905550600073ffffffffffffffffffffffffffffffffffffffff168373ffffffffffffffffffffffffffffffffffffffff167fddf252ad1be2c89b69c2b068fc378daa952ba7f163c4a11628f55a4df523b3ef84604051611c5e91906124d3565b60405180910390a3611c7283600084611ddc565b505050565b600073ffffffffffffffffffffffffffffffffffffffff168273ffffffffffffffffffffffffffffffffffffffff161415611ce7576040517f08c379a0000000000000000000000000000000000000000000000000000000008152600401611cde906124b3565b60405180910390fd5b611cf360008383611dd7565b8060026000828254611d059190612525565b92505081905550806000808473ffffffffffffffffffffffffffffffffffffffff1673ffffffffffffffffffffffffffffffffffffffff1681526020019081526020016000206000828254611d5a9190612525565b925050819055508173ffffffffffffffffffffffffffffffffffffffff16600073ffffffffffffffffffffffffffffffffffffffff167fddf252ad1be2c89b69c2b068fc378daa952ba7f163c4a11628f55a4df523b3ef83604051611dbf91906124d3565b60405180910390a3611dd360008383611ddc565b5050565b505050565b505050565b600081359050611df081612b6f565b92915050565b600081519050611e0581612b86565b92915050565b600081359050611e1a81612b9d565b92915050565b600081359050611e2f81612bb4565b92915050565b600081359050611e4481612bc4565b92915050565b600081519050611e5981612bc4565b92915050565b600060208284031215611e7157600080fd5b6000611e7f84828501611de1565b91505092915050565b60008060408385031215611e9b57600080fd5b6000611ea985828601611de1565b9250506020611eba85828601611de1565b9150509250929050565b600080600060608486031215611ed957600080fd5b6000611ee786828701611de1565b9350506020611ef886828701611de1565b9250506040611f0986828701611e35565b9150509250925092565b60008060408385031215611f2657600080fd5b6000611f3485828601611de1565b9250506020611f4585828601611e35565b9150509250929050565b600060208284031215611f6157600080fd5b6000611f6f84828501611df6565b91505092915050565b600080600060608486031215611f8d57600080fd5b6000611f9b86828701611e0b565b9350506020611fac86828701611e0b565b9250506040611fbd86828701611e35565b9150509250925092565b60008060408385031215611fda57600080fd5b6000611fe885828601611e20565b9250506020611ff985828601611e35565b9150509250929050565b60006020828403121561201557600080fd5b600061202384828501611e4a565b91505092915050565b6120358161263a565b82525050565b6120448161264c565b82525050565b612053816126b4565b82525050565b612062816126d8565b82525050565b600061207382612509565b61207d8185612514565b935061208d8185602086016126ea565b6120968161280b565b840191505092915050565b60006120ae602383612514565b91506120b98261281c565b604082019050919050565b60006120d1602283612514565b91506120dc8261286b565b604082019050919050565b60006120f4602283612514565b91506120ff826128ba565b604082019050919050565b6000612117602683612514565b915061212282612909565b604082019050919050565b600061213a602483612514565b915061214582612958565b604082019050919050565b600061215d602883612514565b9150612168826129a7565b604082019050919050565b6000612180602183612514565b915061218b826129f6565b604082019050919050565b60006121a3602583612514565b91506121ae82612a45565b604082019050919050565b60006121c6602483612514565b91506121d182612a94565b604082019050919050565b60006121e9602583612514565b91506121f482612ae3565b604082019050919050565b600061220c601f83612514565b915061221782612b32565b602082019050919050565b61222b8161269d565b82525050565b61223a816126a7565b82525050565b6000602082019050612255600083018461202c565b92915050565b6000606082019050612270600083018661202c565b61227d602083018561202c565b61228a6040830184612222565b949350505050565b60006040820190506122a7600083018561202c565b6122b46020830184612222565b9392505050565b60006020820190506122d0600083018461203b565b92915050565b60006020820190506122eb600083018461204a565b92915050565b60006040820190506123066000830185612059565b6123136020830184612222565b9392505050565b600060608201905061232f6000830186612059565b61233c6020830185612222565b6123496040830184612222565b949350505050565b6000602082019050818103600083015261236b8184612068565b905092915050565b6000602082019050818103600083015261238c816120a1565b9050919050565b600060208201905081810360008301526123ac816120c4565b9050919050565b600060208201905081810360008301526123cc816120e7565b9050919050565b600060208201905081810360008301526123ec8161210a565b9050919050565b6000602082019050818103600083015261240c8161212d565b9050919050565b6000602082019050818103600083015261242c81612150565b9050919050565b6000602082019050818103600083015261244c81612173565b9050919050565b6000602082019050818103600083015261246c81612196565b9050919050565b6000602082019050818103600083015261248c816121b9565b9050919050565b600060208201905081810360008301526124ac816121dc565b9050919050565b600060208201905081810360008301526124cc816121ff565b9050919050565b60006020820190506124e86000830184612222565b92915050565b60006020820190506125036000830184612231565b92915050565b600081519050919050565b600082825260208201905092915050565b60006125308261269d565b915061253b8361269d565b9250827fffffffffffffffffffffffffffffffffffffffffffffffffffffffffffffffff038211156125705761256f61274f565b5b828201905092915050565b60006125868261269d565b91506125918361269d565b9250826125a1576125a061277e565b5b828204905092915050565b60006125b78261269d565b91506125c28361269d565b9250817fffffffffffffffffffffffffffffffffffffffffffffffffffffffffffffffff04831182151516156125fb576125fa61274f565b5b828202905092915050565b60006126118261269d565b915061261c8361269d565b92508282101561262f5761262e61274f565b5b828203905092915050565b60006126458261267d565b9050919050565b60008115159050919050565b60006126638261263a565b9050919050565b600081905061267882612b5b565b919050565b600073ffffffffffffffffffffffffffffffffffffffff82169050919050565b6000819050919050565b600060ff82169050919050565b60006126bf826126c6565b9050919050565b60006126d18261267d565b9050919050565b60006126e38261266a565b9050919050565b60005b838110156127085780820151818401526020810190506126ed565b83811115612717576000848401525b50505050565b6000600282049050600182168061273557607f821691505b60208210811415612749576127486127dc565b5b50919050565b7f4e487b7100000000000000000000000000000000000000000000000000000000600052601160045260246000fd5b7f4e487b7100000000000000000000000000000000000000000000000000000000600052601260045260246000fd5b7f4e487b7100000000000000000000000000000000000000000000000000000000600052602160045260246000fd5b7f4e487b7100000000000000000000000000000000000000000000000000000000600052602260045260246000fd5b6000601f19601f8301169050919050565b7f45524332303a207472616e7366657220746f20746865207a65726f206164647260008201527f6573730000000000000000000000000000000000000000000000000000000000602082015250565b7f45524332303a206275726e20616d6f756e7420657863656564732062616c616e60008201527f6365000000000000000000000000000000000000000000000000000000000000602082015250565b7f45524332303a20617070726f766520746f20746865207a65726f20616464726560008201527f7373000000000000000000000000000000000000000000000000000000000000602082015250565b7f45524332303a207472616e7366657220616d6f756e742065786365656473206260008201527f616c616e63650000000000000000000000000000000000000000000000000000602082015250565b7f506f6f6c203a20646f206e6f742068617665206c697175696469747920746f2060008201527f7377617000000000000000000000000000000000000000000000000000000000602082015250565b7f45524332303a207472616e7366657220616d6f756e742065786365656473206160008201527f6c6c6f77616e6365000000000000000000000000000000000000000000000000602082015250565b7f45524332303a206275726e2066726f6d20746865207a65726f2061646472657360008201527f7300000000000000000000000000000000000000000000000000000000000000602082015250565b7f45524332303a207472616e736665722066726f6d20746865207a65726f20616460008201527f6472657373000000000000000000000000000000000000000000000000000000602082015250565b7f45524332303a20617070726f76652066726f6d20746865207a65726f2061646460008201527f7265737300000000000000000000000000000000000000000000000000000000602082015250565b7f45524332303a2064656372656173656420616c6c6f77616e63652062656c6f7760008201527f207a65726f000000000000000000000000000000000000000000000000000000602082015250565b7f45524332303a206d696e7420746f20746865207a65726f206164647265737300600082015250565b60028110612b6c57612b6b6127ad565b5b50565b612b788161263a565b8114612b8357600080fd5b50565b612b8f8161264c565b8114612b9a57600080fd5b50565b612ba681612658565b8114612bb157600080fd5b50565b60028110612bc157600080fd5b50565b612bcd8161269d565b8114612bd857600080fd5b5056fea26469706673582212201ba44af3b87d329b88faac7491747ec5097e92a1d5604f0f3f29c6c035d9ef9764736f6c63430008040033a2646970667358221220335d2a6030bccaf353bbe88c7b9efb79a1e68de0e0ff0cf39bb34e2da948052a64736f6c63430008040033",
  "linkReferences": {},
  "deployedLinkReferences": {}
}